:020000001528C1
:0C00060083120D088A000C08820008001C
:1000120003208A110A128000840A8C0A03198D0AAD
:08002200C003031D09280800BA
:10002A00063083128E005B308F004F3090006630AE
:10003A0091006D3092007D309300073094007F303C
:10004A0095006F30960097019801831686018312F6
:10005A0086010130831685008312051C5A289701F0
:10006A00980180301806C00080304002031D3F28E6
:10007A000930170203185928831217080E3E840004
:10008A00000886000630CB001330CC00AD30CD001E
:10009A00CD0B4D28CC0B4D28CB0B4D280000000072
:1000AA00970A0319980A36288728970198018030F9
:1000BA001806C00080304002031D65280930170267
:1000CA000318872883121708093CC0001808031C64
:1000DA00013EC101C10240080E3E840000088600AC
:1000EA000630CB001330CC00AD30CD00CD0B7B28D1
:1000FA00CC0B7B28CB0B7B2800000000970A031946
:08010A00980A5C2831288828BE
:02400E00FA3F77
:00000001FF
